:1000000012C03EC01EC01DC01CC01BC07BC019C09A
:1000100018C017C016C015C014C013C012C011C03C
:1000200010C00FC00EC011241FBECFEDCDBF20E009
:10003000A0E6B0E001C01D92A136B207E1F702D000
:10004000BFC0DECF97D066E981E097D0ABD08BD030
:100050008CE382BF89B7826089BF83B7856083BF25
:10006000A8D08A98929A8BB780648BBF85B782603C
:1000700085BF789485B7806285BF88958895FECFC7
:100080001F920F920FB60F9211242F933F934F930D
:100090005F936F937F938F939F93AF93BF93EF93F0
:1000A000FF9380B3887790E0959587959595879590
:1000B000959587958230910561F01CF4019739F090
:1000C0000DC08330910539F0049739F007C06DD029
:1000D00005C06DD003C04AD001C04AD08BB7806440
:1000E0008BBFFF91EF91BF91AF919F918F917F91C6
:1000F0006F915F914F913F912F910F900FBE0F9095
:100100001F9018951F920F920FB60F9211248F9384
:100110008CE382BF809160008F5F80936000883C99
:1001200018F0109260000BC0823059F018F4811161
:1001300009C005C0843019F0863019F003C0C29A96
:1001400001C0C2988F910F900FBE0F901F9018950D
:10015000009741F0EFECF7E03197F1F700C00000B5
:100160000197C1F70895B99AC1980895C19A089561
:10017000C1980895BA9AC29808950F931F93CF9388
:10018000882361F0C82F062F10E0C29AC801E0DF73
:10019000C29884E690E0DCDFC150B9F7CF911F919F
:1001A0000F910895BF9AC7980895C79A0895C79860
:1001B000089581B38F7081BB82B3806F82BB089535
:0401C000F894FFCFE1
:00000001FF
