S01300005472616E736D69747465722E7372656374
S11300000C942A000C9447000C9447000C9447006D
S11300100C9447000C9447000C9447000C94470040
S11300200C9447000C94D5000C9447000C944700A2
S11300300C9447000C9447000C9447000C94470020
S11300400C9447000C9447000C9447000C94470010
S11300500C94470011241FBECFE5D8E0DEBFCDBF0E
S113006012E0A0E6B0E0E6E1FFE002C005900D92E8
S1130070A830B107D9F722E0A8E0B2E001C01D9290
S1130080AC30B207E1F70E945A000C9489070C9433
S1130090000081EC80930B0280917000813029F480
S11300A08EE990E00E94520308958DEA90E00E9448
S11300B0520308950E9459010E943C010E94430486
S11300C064E670E082E00E945C010E94B7030E9433
S11300D062040E94400481EE8DBD8BE78CBD89B71C
S11300E0846089BF1FBC8EB584608EBD829903C0B5
S11300F00E94480202C00E9416020E947C038CEBFC
S113010090E00E9452030E944900789485B7806869
S113011085BF889580910A0281FF45C00E948601AF
S1130120C82F8823D9F16AEF70E081E00E945C0156
S1130130DFEFDC0FD83099F480917000813021F426
S113014082E08093700003C081E0809370000E947D
S113015049006AEF70E082E00E945C011FC0809158
S11301607000813019F08230B1F018C00E947C0315
S1130170CD2FD0E0FE01EE0FFF1FE05AFF4F80812C
S113018091810E945203CE010E9441010E947C038E
S11301900E94490003C08C2F0E944C0480910A02E3
S11301A08D7F80930A028895B5CF1F920F920FB668
S11301B00F9211248F9381EE8DBD8BE78CBD8091BE
S11301C009028F5F80930902883218F010920902A5
S11301D008C0813041F028F0823019F0833021F4D6
S11301E002C0A89A01C0A89880910A0281FD0FC09C
S11301F0809108028F5F823018F48093080207C050
S11302001092080280910A02826080930A028F9100
S11302100F900FBE0F901F90189517B83E9A3F9AF3
S11302203D9816B886B1866886B90895CF93C82FCD
S11302300E940D0197B1907E8C2F892B87B990E293
S113024040E050E0369A349BFECF84B125B130E0D3
S1130250322F2227280F311D420F531F349A9150F9
S113026089F7CA0196958795929582958F7089270B
S11302709F708927CF9108958FEF87BB98B388BB70
S11302800895CF93DF9398B3C1E0D0E002C0CC0FC0
S1130290DD1F8A95E2F78C2F8095982398BB84E61E
S11302A090E00E94720188B3C82BC8BBDF91CF9144
S11302B00895A19AA99808950F931F93CF93882323
S11302C069F08B01C82FA99AC8010E947201A998EC
S11302D084E690E00E947201C150A9F7CF911F916A
S11302E00F910895009741F0EFECF7E03197F1F7A3
S11302F000C000000197C1F70895009731F022E093
S11303002A95F1F700C00197D1F70895CF92DF92B3
S1130310EF92FF920F931F93CF93DF93CDB7DEB786
S11303202F970FB6F894DEBF0FBECDBF7E018BE0D2
S1130330E80EF11C01E810E0812F0E9416019C01D7
S1130340AFE2BAEB0E9479049695879596958795C6
S113035096958795F70181937F01BE016F5F7F4F6B
S113036090E00E94040400930B0283E092E00E9458
S1130370520300930B02CE0101960E9452031F5FA9
S11303800D5F1530C9F6EB84F12C61E770E080E075
S11303908E01005F1F4F90910A02916090930A02B0
S11303A0FB01208130E0A9014B5F5F4FE416F506A5
S11303B0CCF4255031092E153F05A4F4FE013C96DA
S11303C0DB011196419150E02D9130E0690195E0F7
S11303D0C90ED11C4C155D052CF425503109241788
S11303E0350734F090910A029E7F90930A0203C06D
S11303F0E017F10739F790910A0290FF02C08F5F6E
S113040006C08F5F6B5F7F4F893029F680E02F969F
S11304100FB6F894DEBF0FBECDBFDF91CF911F9111
S11304200F91FF90EF90DF90CF900895CF92DF92DD
S1130430EF92FF920F931F93CF93DF930F2EF1E769
S1130440CF2EF0E0DF2EF02D80E090E012C08C0182
S11304500F5F1F4F0E943D078993C8010E151F05AA
S1130460B1F725E0C20ED11CC70120E08D329207FE
S113047031F07C0125E0E20EF11CE601E8CFDF91CA
S1130480CF911F910F91FF90EF90DF90CF9008953F
S11304902F923F924F925F926F927F928F929F9290
S11304A0AF92BF92CF92DF92EF92FF920F931F937E
S11304B0CF93DF93CDB7DEB7A8970FB6F894DEBF1E
S11304C00FBECDBF0E947C038AEB91E00E945203D1
S11304D06BE470E081E00E945C0184EF91E00E9493
S11304E07201829BFECF88248394912C80E090E05B
S11304F098A78FA3DE0111966D015E01B6E0AB0EE5
S1130500B11C4C2CDEA2512C6A2C7B2CFE01709663
S1130510FDA3ECA37601042D1EA10F2EF1E82F2ECE
S1130520F02D352C832D0E9416019C01AFE2BAEB0D
S11305300E947904969587959695879596958795C3
S1130540D8018D938D01662D772D90E00E940404CF
S113055020920B0283E092E00E94520320920B024D
S1130560862D972D0E9452033394B3E02B0EE5E0C1
S11305703E12D8CF8299CECF66E970E081E00E9426
S11305805C010E9483039F928F92ABECB1E0BF9316
S1130590AF93FDA1FF938CA18F930E949C04CE0185
S11305A040960E9452030F900F900F900F900F905F
S11305B00F908FA198A58C010F5F1F4FD7016C91ED
S11305C00E944507F70111927F018AE090E00E94A2
S11305D07201C801EA14FB0471F78FA198A505966E
S11305E098A78FA39FEF891A990AAAE08A16910403
S11305F009F090CF84EF91E00E9472010E947C0385
S11306008DED91E00E9452036BE470E083E00E9460
S11306105C0184EF91E00E9472010E941602A89688
S11306200FB6F894DEBF0FBECDBFDF91CF911F91FF
S11306300F91FF90EF90DF90CF90BF90AF909F907D
S11306408F907F906F905F904F903F902F90089580
S1130650AB9881E090E00E947D01AB9A0895CF931E
S1130660C82F85B39C2F907F8F70892B85BB0E94E8
S1130670280325B330E1C39FC0011124922F9F703A
S1130680892B85BB0E94280382E090E00E947201BE
S1130690CF910895AA980E942F030895AA9A0E94C0
S11306A02F0308950F931F93CF93DF93FC012081B1
S11306B02223E9F0EC0100EC10E880910B02803970
S11306C019F0803D21F005C000930B0202C0109385
S11306D00B0280910B0291E0980F90930B020E9401
S11306E04A0389910E944E0388818111E6CFDF91EC
S11306F0CF911F910F91089581E00E944A0380E8F1
S113070080930B02089580EC0E944A0380EC80934E
S11307100B0208950F931F93CF938CEE91E00E94E8
S113072052030E94830308EC10E0C0EC8C2F0E945B
S11307304A038EE20E944E0380E48C0F883020F43A
S1130740C8010E94720104C089E190E00E94720114
S11307508C2F0E944A0380E20E944E03CF5F0E5CFE
S11307601F4FC03D19F7CF911F910F91089584B386
S11307708C6F84BB85B3837085BB88E290E00E9454
S1130780720183E30E944A0385E090E00E947201B3
S113079083E30E944A0384EF91E00E947D0182E397
S11307A00E944A0384EF91E00E947D0188E20E9446
S11307B04A038CE00E944A0386E00E944A0381E0D7
S11307C00E944A030E947C030E948A030895FC014C
S11307D001900020E9F73197E81BF90B9F012150A4
S11307E03109121613067CF4E80FF91FDC0180E0CE
S11307F090E04C9152915D934083019621503109D0
S113080082179307B4F30895EF92FF920F931F9307
S1130810CF93DF938C01EB019C01992324F42227CD
S11308203327281B390BC901FE0120E030E00F2ECD
S1130830FAE0EF2EF12CF02D2F5F3F4FB7010E940D
S11308406504805D8193862F972F18161906A4F3EB
S1130850C90111233CF42F5F3F4FFE01E80FF91F3C
S11308604DE24083FE01E20FF31F1082CE010E948D
S1130870E703DF91CF911F910F91FF90EF900895BF
S1130880A09AA89808958B9A939A81B3806F81BB9C
S113089082B38F7082BB089522B330E1839FC0017D
S11308A011242F70822B82BB939884EF91E00E94D5
S11308B07201939A88EC90E00E94720182B38F7067
S11308C082BB08958A98929A089597FB072E16F48E
S11308D0009407D077FD09D00E94880407FC05D056
S11308E03EF4909581959F4F0895709561957F4F43
S11308F00895A29FB001B39FC001A39F700D811DF5
S11309001124911DB29F700D811D1124911D089514
S1130910AA1BBB1B51E107C0AA1FBB1FA617B70721
S113092010F0A61BB70B881F991F5A95A9F780953D
S11309309095BC01CD010895AEE0B0E0E2EAF4E0A8
S11309400C9460070D891E8986E08C831A830983C1
S11309508FEF9FE79E838D83AE01475E5F4F6F8964
S1130960788DCE0101960E94BF042F813885F8014D
S1130970E20FF31F10822E96E4E00C947C07ACE0A7
S1130980B0E0E5ECF4E00C9452077C016B018A01C1
S1130990FC0117821682838181FFBDC1CE010196BD
S11309A04C01F7019381F60193FD859193FF8191A9
S11309B06F01882309F4ABC1853239F493FD859125
S11309C093FF81916F01853229F4B70190E00E9471
S11309D0A706E7CF512C312C20E02032A0F48B3233
S11309E069F030F4803259F0833269F420612CC00C
S11309F08D3239F0803339F4216026C022602460BE
S1130A0023C0286021C027FD27C030ED380F3A30BD
S1130A1078F426FF06C0FAE05F9E300D1124532EB1
S1130A2013C08AE0389E300D1124332E20620CC08E
S1130A308E3221F426FD6BC1206406C08C3611F47D
S1130A40206802C0883641F4F60193FD859193FF36
S1130A5081916F018111C1CF982F9F7D955493305F
S1130A6028F40C5F1F4FFFE3F9830DC0833631F088
S1130A70833771F0833509F05BC022C0F8018081AF
S1130A8089830E5F1F4F44244394512C540115C095
S1130A903801F2E06F0E711CF801A080B18026FFCE
S1130AA003C0652D70E002C06FEF7FEFC5012C8796
S1130AB00E949C062C0183012C852F77222E17C0BF
S1130AC03801F2E06F0E711CF801A080B18026FF9E
S1130AD003C0652D70E002C06FEF7FEFC5012C8766
S1130AE00E9491062C012C852068222E830123FC70
S1130AF01BC0832D90E048165906B0F4B70180E27C
S1130B0090E00E94A7063A94F4CFF50127FC859162
S1130B1027FE81915F01B70190E00E94A706311082
S1130B203A94F1E04F1A51084114510471F7E5C0A9
S1130B30843611F0893639F5F80127FF07C0608142
S1130B407181828193810C5F1F4F08C06081718124
S1130B50072E000C880B990B0E5F1F4F2F76722EF9
S1130B6097FF09C090958095709561957F4F8F4F41
S1130B709F4F2068722E2AE030E0A4010E94DF0615
S1130B80A82EA81844C0853729F42F7EB22E2AE057
S1130B9030E025C0F22FF97FBF2E8F36C1F018F454
S1130BA0883579F0B4C0803719F0883721F0AFC0A8
S1130BB02F2F2061B22EB4FE0DC08B2D8460B82E71
S1130BC009C024FF0AC09F2F9660B92E06C028E0F2
S1130BD030E005C020E130E002C020E132E0F8015D
S1130BE0B7FE07C060817181828193810C5F1F4FC2
S1130BF006C06081718180E090E00E5F1F4FA40108
S1130C000E94DF06A82EA818FB2DFF777F2E76FE04
S1130C100BC0372D3E7FA51450F474FE0AC072FC3D
S1130C2008C0372D3E7E05C0BA2C372D03C0BA2C20
S1130C3001C0B52C34FF0DC0FE01EA0DF11D808109
S1130C40803311F4397E09C032FF06C0B394B394E3
S1130C5004C0832F867809F0B39433FD13C030FFAA
S1130C6006C05A2CB31418F4530C5B18B32CB314E9
S1130C7068F4B70180E290E03C870E94A706B39431
S1130C803C85F5CFB31410F43B1801C0312C34FF6C
S1130C9012C0B70180E390E03C870E94A7063C8520
S1130CA032FF17C031FD03C088E790E002C088E539
S1130CB090E0B7010CC0832F867859F031FF02C051
S1130CC08BE201C080E237FD8DE2B70190E00E9423
S1130CD0A706A51438F4B70180E390E00E94A706A4
S1130CE05A94F7CFAA94F401EA0DF11D8081B7015B
S1130CF090E00E94A706A110F5CF332009F451CE4D
S1130D00B70180E290E00E94A7063A94F6CFF7017B
S1130D108681978102C08FEF9FEF2C96E2E10C94BD
S1130D206E07FC010590615070400110D8F7809562
S1130D3090958E0F9F1F0895FC01615070400190A3
S1130D400110D8F7809590958E0F9F1F08950F93EB
S1130D501F93CF93DF93FB01238121FD03C08FEF0A
S1130D609FEF28C022FF16C0468157812481358118
S1130D704217530744F4A081B1819D012F5F3F4F77
S1130D80318320838C93268137812F5F3F4F3783B4
S1130D90268310C0EB01092F182F0084F185E02D64
S1130DA00995892BE1F68E819F8101969F838E831D
S1130DB0812F902FDF91CF911F910F910895FA0108
S1130DC0AA27283051F1203181F1E8946F936E7F86
S1130DD06E5F7F4F8F4F9F4FAF4FB1E03ED0B4E077
S1130DE03CD0670F781F891F9A1FA11D680F791FB8
S1130DF08A1F911DA11D6A0F711D811D911DA11DC9
S1130E0020D009F468943F912AE0269F11243019D8
S1130E10305D3193DEF6CF010895462F4770405D73
S1130E204193B3E00FD0C9F7F6CF462F4F70405D22
S1130E304A3318F0495D31FD4052419302D0A9F77D
S1130E40EACFB4E0A6959795879577956795BA9577
S1130E50C9F700976105710508959B01AC010A2E3D
S1130E6006945795479537952795BA95C9F7620F14
S1130E70731F841F951FA01D0895E199FECF9FBB8A
S1130E808EBBE09A99278DB30895262FE199FECF62
S1130E909FBB8EBB2DBB0FB6F894E29AE19A0FBEAE
S1130EA0019608952F923F924F925F926F927F9294
S1130EB08F929F92AF92BF92CF92DF92EF92FF9266
S1130EC00F931F93CF93DF93CDB7DEB7CA1BDB0B12
S1130ED00FB6F894DEBF0FBECDBF09942A883988B7
S1130EE048885F846E847D848C849B84AA84B984BE
S1130EF0C884DF80EE80FD800C811B81AA81B981CA
S1130F00CE0FD11D0FB6F894DEBF0FBECDBFED01DD
S1090F100895F894FFCFE0
S1130F16CB00E6000601270143015D017E019F0126
S1130F26015D5D5D5D4D5D5D5D3C5D5D5D285D5DA9
S1130F365D505D5D5D465D5D5D5D5D5D2F4C5D5D3A
S1130F46532D5D5D5D57365055504D355643564FBE
S1130F5649434520504C41594241434B0044455670
S1130F6649434520434F4E54524F4C002020534D85
S1130F7641525420476C6F76655300497427732099
S1130F8674696D6520746F2074616B65206D7920BA
S1130F9670696C6C730043616E20752067657420FC
S1130FA66D6520746F6461792773206E657773703D
S1130FB6617065723F0049276D20737461727669AA
S1130FC66E67212043616E20492068617665206D35
S1130FD679206D65616C00476574206D6520736FBB
S1130FE66D6520776174657220746F206472696E12
S1130FF66B210049206E65656420612070657274FA
S1131006696E656E74206174746972650049206640
S113101665656C207369636B6973682C2063616C06
S11310266C2074686520646F63746F722100437268
S113103669746963616C2C206E65656420657870DB
S113104665646974696F75732068656C70210049FD
S1131056206E65656420746F20676F207468652050
S113106672657374726F6F6D210043616C6962728D
S11310766174276720476C6F76650053746F7269D5
S11310866E672025642053594D424F4C002020435F
S1131096616C696272617465642121002020494E85
S11310A6495449414C495A494E47002020202020A2
S10B10B620202020202000006E
S9030000FC
